{"address":"0x7F638C7aa846D3a7e751CC6783De074F4c2D4BAE","bytecode":"0x608060405234801561001057600080fd5b5061370a806100206000396000f3fe6080604052600436106102875760003560e01c80638cfd8f5c1161015a578063bc810c1a116100c1578063df2a5b3b1161007a578063df2a5b3b146107e9578063eb8d72b714610809578063f2fde38b14610829578063f5ecbdbc14610849578063f9931be014610869578063fbe532341461089657600080fd5b8063bc810c1a14610764578063c446183414610777578063cbed8b9c1461078d578063d1deba1f146107ad578063d6e6eb9f146107c0578063dd06f6bd146107d657600080fd5b8063a6c3d16511610113578063a6c3d165146106b1578063a9e56f3c146106d1578063ab8236f3146106f1578063af295cba14610711578063b353aaa714610724578063baf3292d1461074457600080fd5b80638cfd8f5c146105db5780638da5cb5b14610613578063950c8a74146106315780639ae71781146106515780639f38369a14610671578063a49834211461069157600080fd5b80633f1f4fa4116101fe5780635b8c41e6116101b75780635b8c41e6146104f75780635c38a60a146105465780635cf4ee911461055957806366ad5c8a14610579578063715018a6146105995780637533d788146105ae57600080fd5b80633f1f4fa41461041257806342d65a8d1461043f5780634635256e1461045f578063485cc9551461047f5780634ce7957c1461049f5780635a8a764e146104d757600080fd5b806310ddb1371161025057806310ddb137146103595780632267a89c1461037957806324828eeb1461039957806324dc441d146103ac5780633a96fdd7146103c25780633d8b38f6146103f257600080fd5b80621d35671461028c578063020235ff146102ae57806307e0db17146102f95780630df37483146103195780630f026f6d14610339575b600080fd5b34801561029857600080fd5b506102ac6102a7366004612937565b6108b6565b005b3480156102ba57600080fd5b506102e66102c93660046129df565b60cd60209081526000928352604080842090915290825290205481565b6040519081526020015b60405180910390f35b34801561030557600080fd5b506102ac610314366004612a18565b610ad2565b34801561032557600080fd5b506102ac610334366004612a33565b610b3f565b34801561034557600080fd5b506102e6610354366004612a5d565b610b5e565b34801561036557600080fd5b506102ac610374366004612a18565b610bd8565b34801561038557600080fd5b506102e6610394366004612a5d565b610c14565b6102ac6103a7366004612a7b565b610c82565b3480156103b857600080fd5b506102e660cb5481565b3480156103ce57600080fd5b506103e26103dd366004612bc2565b610d65565b60405190151581526020016102f0565b3480156103fe57600080fd5b506103e261040d366004612c25565b610dbe565b34801561041e57600080fd5b506102e661042d366004612a18565b60686020526000908152604090205481565b34801561044b57600080fd5b506102ac61045a366004612c25565b610e8b565b34801561046b57600080fd5b506102e661047a366004612a5d565b610ef5565b34801561048b57600080fd5b506102ac61049a3660046129df565b610f18565b3480156104ab57600080fd5b5060c9546104bf906001600160a01b031681565b6040516001600160a01b0390911681526020016102f0565b3480156104e357600080fd5b506102ac6104f2366004612c77565b611048565b34801561050357600080fd5b506102e6610512366004612c90565b6097602090815260009384526040808520845180860184018051928152908401958401959095209452929052825290205481565b6102ac610554366004612ced565b611055565b34801561056557600080fd5b506102e6610574366004612d22565b6110bf565b34801561058557600080fd5b506102ac610594366004612937565b6111d7565b3480156105a557600080fd5b506102ac6112b3565b3480156105ba57600080fd5b506105ce6105c9366004612a18565b6112c7565b6040516102f09190612d94565b3480156105e757600080fd5b506102e66105f6366004612da7565b606760209081526000928352604080842090915290825290205481565b34801561061f57600080fd5b506033546001600160a01b03166104bf565b34801561063d57600080fd5b506069546104bf906001600160a01b031681565b34801561065d57600080fd5b506102e661066c366004612a5d565b611361565b34801561067d57600080fd5b506105ce61068c366004612a18565b61138f565b34801561069d57600080fd5b506102ac6106ac366004612c77565b61149e565b3480156106bd57600080fd5b506102ac6106cc366004612c25565b6114ab565b3480156106dd57600080fd5b5060cc546104bf906001600160a01b031681565b3480156106fd57600080fd5b506102ac61070c366004612dda565b611527565b6102ac61071f366004612ced565b6115b5565b34801561073057600080fd5b506065546104bf906001600160a01b031681565b34801561075057600080fd5b506102ac61075f366004612e74565b6115fe565b6102ac610772366004612e91565b61165a565b34801561078357600080fd5b506102e661271081565b34801561079957600080fd5b506102ac6107a8366004612ed2565b611977565b6102ac6107bb366004612937565b6119f0565b3480156107cc57600080fd5b506102e660ca5481565b6102ac6107e4366004612e91565b611c06565b3480156107f557600080fd5b506102ac610804366004612f40565b611ecf565b34801561081557600080fd5b506102ac610824366004612c25565b611f81565b34801561083557600080fd5b506102ac610844366004612e74565b611fdb565b34801561085557600080fd5b506105ce610864366004612f7c565b612054565b34801561087557600080fd5b506102e6610884366004612e74565b60ce6020526000908152604090205481565b3480156108a257600080fd5b506102ac6108b1366004612e74565b6120e7565b6065546001600160a01b0316336001600160a01b03161461091e5760405162461bcd60e51b815260206004820152601e60248201527f4c7a4170703a20696e76616c696420656e64706f696e742063616c6c6572000060448201526064015b60405180910390fd5b61ffff86166000908152606660205260408120805461093c90612fc9565b80601f016020809104026020016040519081016040528092919081815260200182805461096890612fc9565b80156109b55780601f1061098a576101008083540402835291602001916109b5565b820191906000526020600020905b81548152906001019060200180831161099857829003601f168201915b505050505090508051868690501480156109d0575060008151115b80156109f85750805160208201206040516109ee9088908890613003565b6040518091039020145b610a535760405162461bcd60e51b815260206004820152602660248201527f4c7a4170703a20696e76616c696420736f757263652073656e64696e6720636f6044820152651b9d1c9858dd60d21b6064820152608401610915565b610ac98787878080601f01602080910402602001604051908101604052809392919081815260200183838082843760009201919091525050604080516020601f8a018190048102820181019092528881528a93509150889088908190840183828082843760009201919091525061211192505050565b50505050505050565b610ada61218a565b6065546040516307e0db1760e01b815261ffff831660048201526001600160a01b03909116906307e0db17906024015b600060405180830381600087803b158015610b2457600080fd5b505af1158015610b38573d6000803e3d6000fd5b5050505050565b610b4761218a565b61ffff909116600090815260686020526040902055565b600080610b6b8484610ef5565b90506000670de0b6b3a764000060ca5483610b869190613029565b610b909190613040565b90506000670de0b6b3a764000060cb5484610bab9190613029565b610bb59190613040565b905080610bc28385613062565b610bcc9190613062565b93505050505b92915050565b610be061218a565b6065546040516310ddb13760e01b815261ffff831660048201526001600160a01b03909116906310ddb13790602401610b0a565b600080610c218484611361565b90506000670de0b6b3a764000060ca5483610c3c9190613029565b610c469190613040565b90506000670de0b6b3a764000060cb5484610c619190613029565b610c6b9190613040565b905080610c788385613075565b610bcc9190613075565b604080516001600160a01b0384166020820152908101829052606090810160408051601f1981840301815260cc5483830183528a845260208481018b90528351606081018552600080825281830152845180860186526002815261060f60f31b9281019290925280850191909152925163e622688960e01b81529194506001600160a01b03169263e6226889923492610d29928e9233928d928d9290918b906004016130b1565b6000604051808303818588803b158015610d4257600080fd5b505af1158015610d56573d6000803e3d6000fd5b50505050505050505050505050565b600081604051602001610d789190613143565b6040516020818303038152906040528051906020012083604051602001610d9f9190613143565b6040516020818303038152906040528051906020012014905092915050565b61ffff831660009081526066602052604081208054829190610ddf90612fc9565b80601f0160208091040260200160405190810160405280929190818152602001828054610e0b90612fc9565b8015610e585780601f10610e2d57610100808354040283529160200191610e58565b820191906000526020600020905b815481529060010190602001808311610e3b57829003601f168201915b505050505090508383604051610e6f929190613003565b60405180910390208180519060200120149150505b9392505050565b610e9361218a565b6065546040516342d65a8d60e01b81526001600160a01b03909116906342d65a8d90610ec79086908690869060040161315f565b600060405180830381600087803b158015610ee157600080fd5b505af1158015610ac9573d6000803e3d6000fd5b6001600160a01b038216600090815260ce6020526040812054610e8490836110bf565b600054610100900460ff1615808015610f385750600054600160ff909116105b80610f525750303b158015610f52575060005460ff166001145b610fb55760405162461bcd60e51b815260206004820152602e60248201527f496e697469616c697a61626c653a20636f6e747261637420697320616c72656160448201526d191e481a5b9a5d1a585b1a5e995960921b6064820152608401610915565b6000805460ff191660011790558015610fd8576000805461ff0019166101001790555b610fe1836121e4565b60cc80546001600160a01b0319166001600160a01b0384161790558015611043576000805461ff0019169055604051600181527f7f26b83ff96e1f2b6a682f133852f6798a09c465da95921460cefb3847402498906020015b60405180910390a15b505050565b61105061218a565b60cb55565b604080516001600160a01b0385166020820152339181019190915260608101839052608080820152600460a0820152631cd95b1b60e21b60c082015261104390829060e0015b60408051601f1981840301815260208301909152600080835290913391903461221c565b600080831561111a5760066110d5600186613075565b6110e0906002613029565b6110eb906001613062565b856110f7600182613075565b6111019190613029565b61110b9190613029565b6111159190613040565b61111d565b60005b905060008415801561112f5750836001145b6111a457600684611141600188613075565b61114b9190613062565b611156906002613029565b611161906001613062565b61116b8688613062565b8661117760018a613075565b6111819190613062565b61118b9190613029565b6111959190613029565b61119f9190613040565b6111a7565b60005b905060006111b58383613075565b90506203d0906111cd82670de0b6b3a7640000613029565b610bcc9190613040565b3330146112355760405162461bcd60e51b815260206004820152602660248201527f4e6f6e626c6f636b696e674c7a4170703a2063616c6c6572206d7573742062656044820152650204c7a4170760d41b6064820152608401610915565b6112ab8686868080601f01602080910402602001604051908101604052809392919081815260200183838082843760009201919091525050604080516020601f8901819004810282018101909252878152899350915087908790819084018382808284376000920191909152506123a592505050565b505050505050565b6112bb61218a565b6112c560006124a2565b565b606660205260009081526040902080546112e090612fc9565b80601f016020809104026020016040519081016040528092919081815260200182805461130c90612fc9565b80156113595780601f1061132e57610100808354040283529160200191611359565b820191906000526020600020905b81548152906001019060200180831161133c57829003601f168201915b505050505081565b6001600160a01b038216600090815260ce6020526040812054610e8490611389908490613075565b836110bf565b61ffff81166000908152606660205260408120805460609291906113b290612fc9565b80601f01602080910402602001604051908101604052809291908181526020018280546113de90612fc9565b801561142b5780601f106114005761010080835404028352916020019161142b565b820191906000526020600020905b81548152906001019060200180831161140e57829003601f168201915b5050505050905080516000036114835760405162461bcd60e51b815260206004820152601d60248201527f4c7a4170703a206e6f20747275737465642070617468207265636f72640000006044820152606401610915565b610e846000601483516114969190613075565b8391906124f4565b6114a661218a565b60ca55565b6114b361218a565b8181306040516020016114c89392919061317d565b60408051601f1981840301815291815261ffff85166000908152606660205220906114f390826131e9565b507f8c0400cfe2d1199b1a725c78960bcc2a344d869b80590d0f2bd005db15a572ce83838360405161103a9392919061315f565b60cc546001600160a01b031633146115925760405162461bcd60e51b815260206004820152602860248201527f6f6e6c7920737461726761746520726f757465722063616e2063616c6c207367604482015267526563656976652160c01b6064820152608401610915565b600080828060200190518101906115a991906132a8565b50505050505050505050565b604080516001600160a01b0385166020820152339181019190915260608101839052608080820152600360a08201526262757960e81b60c082015261104390829060e00161109b565b61160661218a565b606980546001600160a01b0319166001600160a01b0383169081179091556040519081527f5db758e995a17ec1ad84bdef7e8c3293a0bd6179bcce400dff5d4c3d87db726b9060200160405180910390a150565b6001600160a01b038316600090815260ce6020526040812054906116876116818484613075565b846110bf565b90506000670de0b6b3a764000060ca54836116a29190613029565b6116ac9190613040565b90506000670de0b6b3a764000060cb54846116c79190613029565b6116d19190613040565b6001600160a01b03808916600090815260cd60209081526040808320938b168352929052205490915085111561173f5760405162461bcd60e51b8152602060048201526013602482015272496e73756666696369656e742073686172657360681b6044820152606401610915565b6001600160a01b03808816600090815260cd60209081526040808320938a1683529290522054611770908690613075565b6001600160a01b03808916600090815260cd60209081526040808320938b16835292905220556117a08585613075565b6001600160a01b038816600090815260ce60205260408120919091557f2c76e7a47fd53e2854856ac3f0a5f3ee40d15cfaa82266357ea9779c486ab9c39087908990888787876117f0848d613075565b6040516118049897969594939291906132d6565b60405180910390a160006001600160a01b038716826118238587613075565b61182d9190613075565b604051600081818185875af1925050503d8060008114611869576040519150601f19603f3d011682016040523d82523d6000602084013e61186e565b606091505b505060c9546040519192506000916001600160a01b039091169085908381818185875af1925050503d80600081146118c2576040519150601f19603f3d011682016040523d82523d6000602084013e6118c7565b606091505b505090506000896001600160a01b03168460405160006040518083038185875af1925050503d8060008114611918576040519150601f19603f3d011682016040523d82523d6000602084013e61191d565b606091505b5050905082801561192b5750815b80156119345750805b6115a95760405162461bcd60e51b8152602060048201526014602482015273556e61626c6520746f2073656e642066756e647360601b6044820152606401610915565b61197f61218a565b6065546040516332fb62e760e21b81526001600160a01b039091169063cbed8b9c906119b7908890889088908890889060040161331a565b600060405180830381600087803b1580156119d157600080fd5b505af11580156119e5573d6000803e3d6000fd5b505050505050505050565b61ffff86166000908152609760205260408082209051611a139088908890613003565b90815260408051602092819003830190206001600160401b03871660009081529252902054905080611a935760405162461bcd60e51b815260206004820152602360248201527f4e6f6e626c6f636b696e674c7a4170703a206e6f2073746f726564206d65737360448201526261676560e81b6064820152608401610915565b808383604051611aa4929190613003565b604051809103902014611b035760405162461bcd60e51b815260206004820152602160248201527f4e6f6e626c6f636b696e674c7a4170703a20696e76616c6964207061796c6f616044820152601960fa1b6064820152608401610915565b61ffff87166000908152609760205260408082209051611b269089908990613003565b90815260408051602092819003830181206001600160401b038916600090815290845282902093909355601f88018290048202830182019052868252611bbe918991899089908190840183828082843760009201919091525050604080516020601f8a018190048102820181019092528881528a9350915088908890819084018382808284376000920191909152506123a592505050565b7fc264d91f3adc5588250e1551f547752ca0cfa8f6b530d243b9f9f4cab10ea8e58787878785604051611bf5959493929190613353565b60405180910390a150505050505050565b6001600160a01b038316600090815260ce602052604081205490611c2a82846110bf565b90506000670de0b6b3a764000060ca5483611c459190613029565b611c4f9190613040565b90506000670de0b6b3a764000060cb5484611c6a9190613029565b611c749190613040565b905080611c818385613062565b611c8b9190613062565b341015611cd15760405162461bcd60e51b8152602060048201526014602482015273125b9cdd59999a58da595b9d081c185e5b595b9d60621b6044820152606401610915565b6001600160a01b03808816600090815260cd60209081526040808320938a1683529290522054611d02908690613062565b6001600160a01b03808916600090815260cd60209081526040808320938b1683529290522055611d328585613062565b60ce6000896001600160a01b03166001600160a01b0316815260200190815260200160002081905550611d876040518060400160405280600881526020016702a2920a222a21d160c51b815250888688612601565b7f2c76e7a47fd53e2854856ac3f0a5f3ee40d15cfaa82266357ea9779c486ab9c38688600188878787611dba848d613062565b604051611dce9897969594939291906132d6565b60405180910390a160c9546040516000916001600160a01b03169084908381818185875af1925050503d8060008114611e23576040519150601f19603f3d011682016040523d82523d6000602084013e611e28565b606091505b505090506000886001600160a01b03168360405160006040518083038185875af1925050503d8060008114611e79576040519150601f19603f3d011682016040523d82523d6000602084013e611e7e565b606091505b50509050818015611e8c5750805b6119e55760405162461bcd60e51b8152602060048201526014602482015273556e61626c6520746f2073656e642066756e647360601b6044820152606401610915565b611ed761218a565b60008111611f1f5760405162461bcd60e51b81526020600482015260156024820152744c7a4170703a20696e76616c6964206d696e47617360581b6044820152606401610915565b61ffff83811660008181526067602090815260408083209487168084529482529182902085905581519283528201929092529081018290527f9d5c7c0b934da8fefa9c7760c98383778a12dfbfc0c3b3106518f43fb9508ac09060600161103a565b611f8961218a565b61ffff83166000908152606660205260409020611fa782848361338e565b507ffa41487ad5d6728f0b19276fa1eddc16558578f5109fc39d2dc33c3230470dab83838360405161103a9392919061315f565b611fe361218a565b6001600160a01b0381166120485760405162461bcd60e51b815260206004820152602660248201527f4f776e61626c653a206e6577206f776e657220697320746865207a65726f206160448201526564647265737360d01b6064820152608401610915565b612051816124a2565b50565b606554604051633d7b2f6f60e21b815261ffff808716600483015285166024820152306044820152606481018390526060916001600160a01b03169063f5ecbdbc90608401600060405180830381865afa1580156120b6573d6000803e3d6000fd5b505050506040513d6000823e601f3d908101601f191682016040526120de919081019061347d565b95945050505050565b6120ef61218a565b60c980546001600160a01b0319166001600160a01b0392909216919091179055565b6000806121745a60966366ad5c8a60e01b8989898960405160240161213994939291906134cd565b60408051601f198184030181529190526020810180516001600160e01b03166001600160e01b03199093169290921790915230929190612650565b91509150816112ab576112ab86868686856126da565b6033546001600160a01b031633146112c55760405162461bcd60e51b815260206004820181905260248201527f4f776e61626c653a2063616c6c6572206973206e6f7420746865206f776e65726044820152606401610915565b600054610100900460ff1661220b5760405162461bcd60e51b81526004016109159061350b565b612213612777565b612051816127a7565b61ffff86166000908152606660205260408120805461223a90612fc9565b80601f016020809104026020016040519081016040528092919081815260200182805461226690612fc9565b80156122b35780601f10612288576101008083540402835291602001916122b3565b820191906000526020600020905b81548152906001019060200180831161229657829003601f168201915b5050505050905080516000036123245760405162461bcd60e51b815260206004820152603060248201527f4c7a4170703a2064657374696e6174696f6e20636861696e206973206e6f742060448201526f61207472757374656420736f7572636560801b6064820152608401610915565b61232f8787516127f0565b60655460405162c5803160e81b81526001600160a01b039091169063c580310090849061236a908b9086908c908c908c908c90600401613556565b6000604051808303818588803b15801561238357600080fd5b505af1158015612397573d6000803e3d6000fd5b505050505050505050505050565b600080600080848060200190518101906123bf91906135bd565b93509350935093506123ec816040518060400160405280600381526020016262757960e81b815250610d65565b15612431576124216040518060400160405280600f81526020016e213abc9034b739ba393ab1ba34b7b760891b815250612861565b61242c848484611c06565b612498565b61245781604051806040016040528060048152602001631cd95b1b60e21b815250610d65565b156124985761248d6040518060400160405280601081526020016f29b2b6361034b739ba393ab1ba34b7b760811b815250612861565b61249884848461165a565b5050505050505050565b603380546001600160a01b038381166001600160a01b0319831681179093556040519116919082907f8be0079c531659141344cd1fd0a4f28419497f9722a3daafe3b4186f6b6457e090600090a35050565b60608161250281601f613062565b10156125415760405162461bcd60e51b815260206004820152600e60248201526d736c6963655f6f766572666c6f7760901b6044820152606401610915565b61254b8284613062565b8451101561258f5760405162461bcd60e51b8152602060048201526011602482015270736c6963655f6f75744f66426f756e647360781b6044820152606401610915565b6060821580156125ae57604051915060008252602082016040526125f8565b6040519150601f8416801560200281840101858101878315602002848b0101015b818310156125e75780518352602092830192016125cf565b5050858452601f01601f1916604052505b50949350505050565b61264a8484848460405160240161261b949392919061363e565b60408051601f198184030181529190526020810180516001600160e01b0316637c7a8d8f60e11b1790526128a0565b50505050565b6000606060008060008661ffff166001600160401b0381111561267557612675612aff565b6040519080825280601f01601f19166020018201604052801561269f576020820181803683370190505b50905060008087516020890160008d8df191503d9250868311156126c1578692505b828152826000602083013e909890975095505050505050565b8180519060200120609760008761ffff1661ffff1681526020019081526020016000208560405161270b9190613143565b9081526040805191829003602090810183206001600160401b0388166000908152915220919091557fe183f33de2837795525b4792ca4cd60535bd77c53b7e7030060bfcf5734d6b0c906127689087908790879087908790613676565b60405180910390a15050505050565b600054610100900460ff1661279e5760405162461bcd60e51b81526004016109159061350b565b6112c5336124a2565b600054610100900460ff166127ce5760405162461bcd60e51b81526004016109159061350b565b606580546001600160a01b0319166001600160a01b0392909216919091179055565b61ffff82166000908152606860205260408120549081900361281157506127105b808211156110435760405162461bcd60e51b815260206004820181905260248201527f4c7a4170703a207061796c6f61642073697a6520697320746f6f206c617267656044820152606401610915565b612051816040516024016128759190612d94565b60408051601f198184030181529190526020810180516001600160e01b031663104c13eb60e21b1790525b60006a636f6e736f6c652e6c6f679050600080835160208501845afa505050565b803561ffff811681146128d357600080fd5b919050565b60008083601f8401126128ea57600080fd5b5081356001600160401b0381111561290157600080fd5b60208301915083602082850101111561291957600080fd5b9250929050565b80356001600160401b03811681146128d357600080fd5b6000806000806000806080878903121561295057600080fd5b612959876128c1565b955060208701356001600160401b038082111561297557600080fd5b6129818a838b016128d8565b909750955085915061299560408a01612920565b945060608901359150808211156129ab57600080fd5b506129b889828a016128d8565b979a9699509497509295939492505050565b6001600160a01b038116811461205157600080fd5b600080604083850312156129f257600080fd5b82356129fd816129ca565b91506020830135612a0d816129ca565b809150509250929050565b600060208284031215612a2a57600080fd5b610e84826128c1565b60008060408385031215612a4657600080fd5b612a4f836128c1565b946020939093013593505050565b60008060408385031215612a7057600080fd5b8235612a4f816129ca565b600080600080600080600060c0888a031215612a9657600080fd5b612a9f886128c1565b9650602088013595506040880135945060608801356001600160401b03811115612ac857600080fd5b612ad48a828b016128d8565b9095509350506080880135612ae8816129ca565b8092505060a0880135905092959891949750929550565b634e487b7160e01b600052604160045260246000fd5b604051601f8201601f191681016001600160401b0381118282101715612b3d57612b3d612aff565b604052919050565b60006001600160401b03821115612b5e57612b5e612aff565b50601f01601f191660200190565b600082601f830112612b7d57600080fd5b8135612b90612b8b82612b45565b612b15565b818152846020838601011115612ba557600080fd5b816020850160208301376000918101602001919091529392505050565b60008060408385031215612bd557600080fd5b82356001600160401b0380821115612bec57600080fd5b612bf886838701612b6c565b93506020850135915080821115612c0e57600080fd5b50612c1b85828601612b6c565b9150509250929050565b600080600060408486031215612c3a57600080fd5b612c43846128c1565b925060208401356001600160401b03811115612c5e57600080fd5b612c6a868287016128d8565b9497909650939450505050565b600060208284031215612c8957600080fd5b5035919050565b600080600060608486031215612ca557600080fd5b612cae846128c1565b925060208401356001600160401b03811115612cc957600080fd5b612cd586828701612b6c565b925050612ce460408501612920565b90509250925092565b600080600060608486031215612d0257600080fd5b8335612d0d816129ca565b925060208401359150612ce4604085016128c1565b60008060408385031215612d3557600080fd5b50508035926020909101359150565b60005b83811015612d5f578181015183820152602001612d47565b50506000910152565b60008151808452612d80816020860160208601612d44565b601f01601f19169290920160200192915050565b602081526000610e846020830184612d68565b60008060408385031215612dba57600080fd5b612dc3836128c1565b9150612dd1602084016128c1565b90509250929050565b60008060008060008060c08789031215612df357600080fd5b612dfc876128c1565b955060208701356001600160401b0380821115612e1857600080fd5b612e248a838b01612b6c565b96506040890135955060608901359150612e3d826129ca565b9093506080880135925060a08801359080821115612e5a57600080fd5b50612e6789828a01612b6c565b9150509295509295509295565b600060208284031215612e8657600080fd5b8135610e84816129ca565b600080600060608486031215612ea657600080fd5b8335612eb1816129ca565b92506020840135612ec1816129ca565b929592945050506040919091013590565b600080600080600060808688031215612eea57600080fd5b612ef3866128c1565b9450612f01602087016128c1565b93506040860135925060608601356001600160401b03811115612f2357600080fd5b612f2f888289016128d8565b969995985093965092949392505050565b600080600060608486031215612f5557600080fd5b612f5e846128c1565b9250612f6c602085016128c1565b9150604084013590509250925092565b60008060008060808587031215612f9257600080fd5b612f9b856128c1565b9350612fa9602086016128c1565b92506040850135612fb9816129ca565b9396929550929360600135925050565b600181811c90821680612fdd57607f821691505b602082108103612ffd57634e487b7160e01b600052602260045260246000fd5b50919050565b8183823760009101908152919050565b634e487b7160e01b600052601160045260246000fd5b8082028115828204841417610bd257610bd2613013565b60008261305d57634e487b7160e01b600052601260045260246000fd5b500490565b80820180821115610bd257610bd2613013565b81810381811115610bd257610bd2613013565b81835281816020850137506000828201602090810191909152601f909101601f19169091010190565b61ffff881681526001600160a01b038716602082015260e0604082018190526000906130e09083018789613088565b855160608401526020860151608084015282810360a084015284518152602085015160208201526040850151606060408301526131206060830182612d68565b91505082810360c08401526131358185612d68565b9a9950505050505050505050565b60008251613155818460208701612d44565b9190910192915050565b61ffff841681526040602082015260006120de604083018486613088565b8284823760609190911b6bffffffffffffffffffffffff19169101908152601401919050565b601f82111561104357600081815260208120601f850160051c810160208610156131ca5750805b601f850160051c820191505b818110156112ab578281556001016131d6565b81516001600160401b0381111561320257613202612aff565b613216816132108454612fc9565b846131a3565b602080601f83116001811461324b57600084156132335750858301515b600019600386901b1c1916600185901b1785556112ab565b600085815260208120601f198616915b8281101561327a5788860151825594840194600190910190840161325b565b50858210156132985787850151600019600388901b60f8161c191681555b5050505050600190811b01905550565b600080604083850312156132bb57600080fd5b82516132c6816129ca565b6020939093015192949293505050565b6001600160a01b03988916815296909716602087015293151560408601526060850192909252608084015260a083015260c082015260e08101919091526101000190565b600061ffff808816835280871660208401525084604083015260806060830152613348608083018486613088565b979650505050505050565b61ffff86168152608060208201526000613371608083018688613088565b6001600160401b0394909416604083015250606001529392505050565b6001600160401b038311156133a5576133a5612aff565b6133b9836133b38354612fc9565b836131a3565b6000601f8411600181146133ed57600085156133d55750838201355b600019600387901b1c1916600186901b178355610b38565b600083815260209020601f19861690835b8281101561341e57868501358255602094850194600190920191016133fe565b508682101561343b5760001960f88860031b161c19848701351681555b505060018560011b0183555050505050565b600061345b612b8b84612b45565b905082815283838301111561346f57600080fd5b610e84836020830184612d44565b60006020828403121561348f57600080fd5b81516001600160401b038111156134a557600080fd5b8201601f810184136134b657600080fd5b6134c58482516020840161344d565b949350505050565b61ffff851681526080602082015260006134ea6080830186612d68565b6001600160401b038516604084015282810360608401526133488185612d68565b6020808252602b908201527f496e697469616c697a61626c653a20636f6e7472616374206973206e6f74206960408201526a6e697469616c697a696e6760a81b606082015260800190565b61ffff8716815260c06020820152600061357360c0830188612d68565b82810360408401526135858188612d68565b6001600160a01b0387811660608601528616608085015283810360a085015290506135b08185612d68565b9998505050505050505050565b600080600080608085870312156135d357600080fd5b84516135de816129ca565b60208601519094506135ef816129ca565b6040860151606087015191945092506001600160401b0381111561361257600080fd5b8501601f8101871361362357600080fd5b6136328782516020840161344d565b91505092959194509250565b6080815260006136516080830187612d68565b6001600160a01b03959095166020830152506040810192909252606090910152919050565b61ffff8616815260a06020820152600061369360a0830187612d68565b6001600160401b038616604084015282810360608401526136b48186612d68565b905082810360808401526136c88185612d68565b9897505050505050505056fea26469706673582212204e0df679906cc8b22f5205838e74abe7e79a6442f20612b8ef7e58bd1ca8a6fa64736f6c63430008130033","abi":[{"anonymous":false,"inputs":[{"indexed":false,"internalType":"uint8","name":"version","type":"uint8"}],"name":"Initialized","type":"event"},{"anonymous":false,"inputs":[{"indexed":false,"internalType":"uint16","name":"_srcChainId","type":"uint16"},{"indexed":false,"internalType":"bytes","name":"_srcAddress","type":"bytes"},{"indexed":false,"internalType":"uint64","name":"_nonce","type":"uint64"},{"indexed":false,"internalType":"bytes","name":"_payload","type":"bytes"},{"indexed":false,"internalType":"bytes","name":"_reason","type":"bytes"}],"name":"MessageFailed","type":"event"},{"anonymous":false,"inputs":[{"indexed":true,"internalType":"address","name":"previousOwner","type":"address"},{"indexed":true,"internalType":"address","name":"newOwner","type":"address"}],"name":"OwnershipTransferred","type":"event"},{"anonymous":false,"inputs":[{"indexed":false,"internalType":"uint16","name":"_srcChainId","type":"uint16"},{"indexed":false,"internalType":"bytes","name":"_srcAddress","type":"bytes"},{"indexed":false,"internalType":"uint64","name":"_nonce","type":"uint64"},{"indexed":false,"internalType":"bytes32","name":"_payloadHash","type":"bytes32"}],"name":"RetryMessageSuccess","type":"event"},{"anonymous":false,"inputs":[{"indexed":false,"internalType":"uint16","name":"_dstChainId","type":"uint16"},{"indexed":false,"internalType":"uint16","name":"_type","type":"uint16"},{"indexed":false,"internalType":"uint256","name":"_minDstGas","type":"uint256"}],"name":"SetMinDstGas","type":"event"},{"anonymous":false,"inputs":[{"indexed":false,"internalType":"address","name":"precrime","type":"address"}],"name":"SetPrecrime","type":"event"},{"anonymous":false,"inputs":[{"indexed":false,"internalType":"uint16","name":"_remoteChainId","type":"uint16"},{"indexed":false,"internalType":"bytes","name":"_path","type":"bytes"}],"name":"SetTrustedRemote","type":"event"},{"anonymous":false,"inputs":[{"indexed":false,"internalType":"uint16","name":"_remoteChainId","type":"uint16"},{"indexed":false,"internalType":"bytes","name":"_remoteAddress","type":"bytes"}],"name":"SetTrustedRemoteAddress","type":"event"},{"anonymous":false,"inputs":[{"indexed":false,"internalType":"address","name":"trader","type":"address"},{"indexed":false,"internalType":"address","name":"subject","type":"address"},{"indexed":false,"internalType":"bool","name":"isBuy","type":"bool"},{"indexed":false,"internalType":"uint256","name":"shareAmount","type":"uint256"},{"indexed":false,"internalType":"uint256","name":"ethAmount","type":"uint256"},{"indexed":false,"internalType":"uint256","name":"protocolEthAmount","type":"uint256"},{"indexed":false,"internalType":"uint256","name":"subjectEthAmount","type":"uint256"},{"indexed":false,"internalType":"uint256","name":"supply","type":"uint256"}],"name":"Trade","type":"event"},{"inputs":[],"name":"DEFAULT_PAYLOAD_SIZE_LIMIT","outputs":[{"internalType":"uint256","name":"","type":"uint256"}],"stateMutability":"view","type":"function"},{"inputs":[{"internalType":"address","name":"sharesSubject","type":"address"},{"internalType":"address","name":"recipient","type":"address"},{"internalType":"uint256","name":"amount","type":"uint256"}],"name":"buyShares","outputs":[],"stateMutability":"payable","type":"function"},{"inputs":[{"internalType":"string","name":"str1","type":"string"},{"internalType":"string","name":"str2","type":"string"}],"name":"compare","outputs":[{"internalType":"bool","name":"","type":"bool"}],"stateMutability":"pure","type":"function"},{"inputs":[{"internalType":"uint16","name":"","type":"uint16"},{"internalType":"bytes","name":"","type":"bytes"},{"internalType":"uint64","name":"","type":"uint64"}],"name":"failedMessages","outputs":[{"internalType":"bytes32","name":"","type":"bytes32"}],"stateMutability":"view","type":"function"},{"inputs":[{"internalType":"uint16","name":"_srcChainId","type":"uint16"},{"internalType":"bytes","name":"_srcAddress","type":"bytes"}],"name":"forceResumeReceive","outputs":[],"stateMutability":"nonpayable","type":"function"},{"inputs":[{"internalType":"address","name":"sharesSubject","type":"address"},{"internalType":"uint256","name":"amount","type":"uint256"}],"name":"getBuyPrice","outputs":[{"internalType":"uint256","name":"","type":"uint256"}],"stateMutability":"view","type":"function"},{"inputs":[{"internalType":"address","name":"sharesSubject","type":"address"},{"internalType":"uint256","name":"amount","type":"uint256"}],"name":"getBuyPriceAfterFee","outputs":[{"internalType":"uint256","name":"","type":"uint256"}],"stateMutability":"view","type":"function"},{"inputs":[{"internalType":"uint16","name":"_version","type":"uint16"},{"internalType":"uint16","name":"_chainId","type":"uint16"},{"internalType":"address","name":"","type":"address"},{"internalType":"uint256","name":"_configType","type":"uint256"}],"name":"getConfig","outputs":[{"internalType":"bytes","name":"","type":"bytes"}],"stateMutability":"view","type":"function"},{"inputs":[{"internalType":"uint256","name":"supply","type":"uint256"},{"internalType":"uint256","name":"amount","type":"uint256"}],"name":"getPrice","outputs":[{"internalType":"uint256","name":"","type":"uint256"}],"stateMutability":"pure","type":"function"},{"inputs":[{"internalType":"address","name":"sharesSubject","type":"address"},{"internalType":"uint256","name":"amount","type":"uint256"}],"name":"getSellPrice","outputs":[{"internalType":"uint256","name":"","type":"uint256"}],"stateMutability":"view","type":"function"},{"inputs":[{"internalType":"address","name":"sharesSubject","type":"address"},{"internalType":"uint256","name":"amount","type":"uint256"}],"name":"getSellPriceAfterFee","outputs":[{"internalType":"uint256","name":"","type":"uint256"}],"stateMutability":"view","type":"function"},{"inputs":[{"internalType":"uint16","name":"_remoteChainId","type":"uint16"}],"name":"getTrustedRemoteAddress","outputs":[{"internalType":"bytes","name":"","type":"bytes"}],"stateMutability":"view","type":"function"},{"inputs":[{"internalType":"address","name":"_lzAddress","type":"address"},{"internalType":"address","name":"_stargateAddress","type":"address"}],"name":"initialize","outputs":[],"stateMutability":"nonpayable","type":"function"},{"inputs":[{"internalType":"uint16","name":"_srcChainId","type":"uint16"},{"internalType":"bytes","name":"_srcAddress","type":"bytes"}],"name":"isTrustedRemote","outputs":[{"internalType":"bool","name":"","type":"bool"}],"stateMutability":"view","type":"function"},{"inputs":[{"internalType":"address","name":"sharesSubject","type":"address"},{"internalType":"uint256","name":"amount","type":"uint256"},{"internalType":"uint16","name":"_dstChainId","type":"uint16"}],"name":"lzBuyShares","outputs":[],"stateMutability":"payable","type":"function"},{"inputs":[{"internalType":"uint16","name":"chainId","type":"uint16"},{"internalType":"uint256","name":"amountLD","type":"uint256"},{"internalType":"uint256","name":"minAmountLD","type":"uint256"},{"internalType":"bytes","name":"_toAddress","type":"bytes"},{"internalType":"address","name":"sharesSubject","type":"address"},{"internalType":"uint256","name":"amount","type":"uint256"}],"name":"lzBuyv2","outputs":[],"stateMutability":"payable","type":"function"},{"inputs":[],"name":"lzEndpoint","outputs":[{"internalType":"contract ILayerZeroEndpointUpgradeable","name":"","type":"address"}],"stateMutability":"view","type":"function"},{"inputs":[{"internalType":"uint16","name":"_srcChainId","type":"uint16"},{"internalType":"bytes","name":"_srcAddress","type":"bytes"},{"internalType":"uint64","name":"_nonce","type":"uint64"},{"internalType":"bytes","name":"_payload","type":"bytes"}],"name":"lzReceive","outputs":[],"stateMutability":"nonpayable","type":"function"},{"inputs":[{"internalType":"address","name":"sharesSubject","type":"address"},{"internalType":"uint256","name":"amount","type":"uint256"},{"internalType":"uint16","name":"_dstChainId","type":"uint16"}],"name":"lzSellShares","outputs":[],"stateMutability":"payable","type":"function"},{"inputs":[{"internalType":"uint16","name":"","type":"uint16"},{"internalType":"uint16","name":"","type":"uint16"}],"name":"minDstGasLookup","outputs":[{"internalType":"uint256","name":"","type":"uint256"}],"stateMutability":"view","type":"function"},{"inputs":[{"internalType":"uint16","name":"_srcChainId","type":"uint16"},{"internalType":"bytes","name":"_srcAddress","type":"bytes"},{"internalType":"uint64","name":"_nonce","type":"uint64"},{"internalType":"bytes","name":"_payload","type":"bytes"}],"name":"nonblockingLzReceive","outputs":[],"stateMutability":"nonpayable","type":"function"},{"inputs":[],"name":"owner","outputs":[{"internalType":"address","name":"","type":"address"}],"stateMutability":"view","type":"function"},{"inputs":[{"internalType":"uint16","name":"","type":"uint16"}],"name":"payloadSizeLimitLookup","outputs":[{"internalType":"uint256","name":"","type":"uint256"}],"stateMutability":"view","type":"function"},{"inputs":[],"name":"precrime","outputs":[{"internalType":"address","name":"","type":"address"}],"stateMutability":"view","type":"function"},{"inputs":[],"name":"protocolFeeDestination","outputs":[{"internalType":"address","name":"","type":"address"}],"stateMutability":"view","type":"function"},{"inputs":[],"name":"protocolFeePercent","outputs":[{"internalType":"uint256","name":"","type":"uint256"}],"stateMutability":"view","type":"function"},{"inputs":[],"name":"renounceOwnership","outputs":[],"stateMutability":"nonpayable","type":"function"},{"inputs":[{"internalType":"uint16","name":"_srcChainId","type":"uint16"},{"internalType":"bytes","name":"_srcAddress","type":"bytes"},{"internalType":"uint64","name":"_nonce","type":"uint64"},{"internalType":"bytes","name":"_payload","type":"bytes"}],"name":"retryMessage","outputs":[],"stateMutability":"payable","type":"function"},{"inputs":[{"internalType":"address","name":"sharesSubject","type":"address"},{"internalType":"address","name":"recipient","type":"address"},{"internalType":"uint256","name":"amount","type":"uint256"}],"name":"sellShares","outputs":[],"stateMutability":"payable","type":"function"},{"inputs":[{"internalType":"uint16","name":"_version","type":"uint16"},{"internalType":"uint16","name":"_chainId","type":"uint16"},{"internalType":"uint256","name":"_configType","type":"uint256"},{"internalType":"bytes","name":"_config","type":"bytes"}],"name":"setConfig","outputs":[],"stateMutability":"nonpayable","type":"function"},{"inputs":[{"internalType":"address","name":"_feeDestination","type":"address"}],"name":"setFeeDestination","outputs":[],"stateMutability":"nonpayable","type":"function"},{"inputs":[{"internalType":"uint16","name":"_dstChainId","type":"uint16"},{"internalType":"uint16","name":"_packetType","type":"uint16"},{"internalType":"uint256","name":"_minGas","type":"uint256"}],"name":"setMinDstGas","outputs":[],"stateMutability":"nonpayable","type":"function"},{"inputs":[{"internalType":"uint16","name":"_dstChainId","type":"uint16"},{"internalType":"uint256","name":"_size","type":"uint256"}],"name":"setPayloadSizeLimit","outputs":[],"stateMutability":"nonpayable","type":"function"},{"inputs":[{"internalType":"address","name":"_precrime","type":"address"}],"name":"setPrecrime","outputs":[],"stateMutability":"nonpayable","type":"function"},{"inputs":[{"internalType":"uint256","name":"_feePercent","type":"uint256"}],"name":"setProtocolFeePercent","outputs":[],"stateMutability":"nonpayable","type":"function"},{"inputs":[{"internalType":"uint16","name":"_version","type":"uint16"}],"name":"setReceiveVersion","outputs":[],"stateMutability":"nonpayable","type":"function"},{"inputs":[{"internalType":"uint16","name":"_version","type":"uint16"}],"name":"setSendVersion","outputs":[],"stateMutability":"nonpayable","type":"function"},{"inputs":[{"internalType":"uint256","name":"_feePercent","type":"uint256"}],"name":"setSubjectFeePercent","outputs":[],"stateMutability":"nonpayable","type":"function"},{"inputs":[{"internalType":"uint16","name":"_srcChainId","type":"uint16"},{"internalType":"bytes","name":"_path","type":"bytes"}],"name":"setTrustedRemote","outputs":[],"stateMutability":"nonpayable","type":"function"},{"inputs":[{"internalType":"uint16","name":"_remoteChainId","type":"uint16"},{"internalType":"bytes","name":"_remoteAddress","type":"bytes"}],"name":"setTrustedRemoteAddress","outputs":[],"stateMutability":"nonpayable","type":"function"},{"inputs":[{"internalType":"uint16","name":"","type":"uint16"},{"internalType":"bytes","name":"","type":"bytes"},{"internalType":"uint256","name":"","type":"uint256"},{"internalType":"address","name":"_token","type":"address"},{"internalType":"uint256","name":"amountLD","type":"uint256"},{"internalType":"bytes","name":"payload","type":"bytes"}],"name":"sgReceive","outputs":[],"stateMutability":"nonpayable","type":"function"},{"inputs":[{"internalType":"address","name":"","type":"address"},{"internalType":"address","name":"","type":"address"}],"name":"sharesBalance","outputs":[{"internalType":"uint256","name":"","type":"uint256"}],"stateMutability":"view","type":"function"},{"inputs":[{"internalType":"address","name":"","type":"address"}],"name":"sharesSupply","outputs":[{"internalType":"uint256","name":"","type":"uint256"}],"stateMutability":"view","type":"function"},{"inputs":[],"name":"stargateRouter","outputs":[{"internalType":"address","name":"","type":"address"}],"stateMutability":"view","type":"function"},{"inputs":[],"name":"subjectFeePercent","outputs":[{"internalType":"uint256","name":"","type":"uint256"}],"stateMutability":"view","type":"function"},{"inputs":[{"internalType":"address","name":"newOwner","type":"address"}],"name":"transferOwnership","outputs":[],"stateMutability":"nonpayable","type":"function"},{"inputs":[{"internalType":"uint16","name":"","type":"uint16"}],"name":"trustedRemoteLookup","outputs":[{"internalType":"bytes","name":"","type":"bytes"}],"stateMutability":"view","type":"function"}]}